{
  "contractName": "Adoption",
  "abi": [
    {
      "inputs": [],
      "payable": false,
      "stateMutability": "nonpayable",
      "type": "constructor"
    },
    {
      "constant": true,
      "inputs": [
        {
          "internalType": "uint256",
          "name": "",
          "type": "uint256"
        }
      ],
      "name": "adopters",
      "outputs": [
        {
          "internalType": "address",
          "name": "",
          "type": "address"
        }
      ],
      "payable": false,
      "stateMutability": "view",
      "type": "function"
    },
    {
      "constant": true,
      "inputs": [],
      "name": "stopped",
      "outputs": [
        {
          "internalType": "bool",
          "name": "",
          "type": "bool"
        }
      ],
      "payable": false,
      "stateMutability": "view",
      "type": "function"
    },
    {
      "constant": false,
      "inputs": [],
      "name": "reset",
      "outputs": [],
      "payable": false,
      "stateMutability": "nonpayable",
      "type": "function"
    },
    {
      "constant": true,
      "inputs": [],
      "name": "isAdmin",
      "outputs": [
        {
          "internalType": "bool",
          "name": "",
          "type": "bool"
        }
      ],
      "payable": false,
      "stateMutability": "view",
      "type": "function"
    },
    {
      "constant": false,
      "inputs": [],
      "name": "circuitBreaker",
      "outputs": [],
      "payable": false,
      "stateMutability": "nonpayable",
      "type": "function"
    },
    {
      "constant": false,
      "inputs": [
        {
          "internalType": "uint256",
          "name": "petId",
          "type": "uint256"
        }
      ],
      "name": "purchase",
      "outputs": [
        {
          "internalType": "uint256",
          "name": "",
          "type": "uint256"
        }
      ],
      "payable": true,
      "stateMutability": "payable",
      "type": "function"
    },
    {
      "constant": true,
      "inputs": [],
      "name": "getAdopters",
      "outputs": [
        {
          "internalType": "address[16]",
          "name": "",
          "type": "address[16]"
        }
      ],
      "payable": false,
      "stateMutability": "view",
      "type": "function"
    }
  ],
  "bytecode": "0x60806040526000601060146101000a81548160ff02191690831515021790555034801561002b57600080fd5b503373ffffffffffffffffffffffffffffffffffffffff16601060009054906101000a90505050610542806100616000396000f3fe6080604052600436106100705760003560e01c806375f12b211161004e57806375f12b211461015a578063b6db75a014610189578063d826f88f146101b8578063efef39a1146101cf57610070565b806316efd941146100755780633de4eb171461008c57806343ae80d3146100df575b600080fd5b34801561008157600080fd5b5061008a610211565b005b34801561009857600080fd5b506100a161022e565b6040518082601060200280838360005b838110156100cc5780820151818401526020810190506100b1565b5050505090500191505060405180910390f35b3480156100eb57600080fd5b506101186004803603602081101561010257600080fd5b81019080803590602001909291905050506102af565b604051808273ffffffffffffffffffffffffffffffffffffffff1673ffffffffffffffffffffffffffffffffffffffff16815260200191505060405180910390f35b34801561016657600080fd5b5061016f6102e2565b604051808215151515815260200191505060405180910390f35b34801561019557600080fd5b5061019e6102f5565b604051808215151515815260200191505060405180910390f35b3480156101c457600080fd5b506101cd61034d565b005b6101fb600480360360208110156101e557600080fd5b81019080803590602001909291905050506103f7565b6040518082815260200191505060405180910390f35b6001601060146101000a81548160ff021916908315150217905550565b6102366104ea565b60006010806020026040519081016040528092919082601080156102a5576020028201915b8160009054906101000a900473ffffffffffffffffffffffffffffffffffffffff1673ffffffffffffffffffffffffffffffffffffffff168152602001906001019080831161025b575b5050505050905090565b600081601081106102bc57fe5b016000915054906101000a900473ffffffffffffffffffffffffffffffffffffffff1681565b601060149054906101000a900460ff1681565b60003373ffffffffffffffffffffffffffffffffffffffff16601060009054906101000a900473ffffffffffffffffffffffffffffffffffffffff1673ffffffffffffffffffffffffffffffffffffffff1614905090565b3373ffffffffffffffffffffffffffffffffffffffff16601060009054906101000a900473ffffffffffffffffffffffffffffffffffffffff1673ffffffffffffffffffffffffffffffffffffffff16146103a757600080fd5b60008090505b60108110156103f457600081601081106103c357fe5b0160006101000a81549073ffffffffffffffffffffffffffffffffffffffff021916905580806001019150506103ad565b50565b6000601060149054906101000a900460ff161561041357600080fd5b600082101580156104255750600f8211155b61042e57600080fd5b600073ffffffffffffffffffffffffffffffffffffffff166000836010811061045357fe5b0160009054906101000a900473ffffffffffffffffffffffffffffffffffffffff1673ffffffffffffffffffffffffffffffffffffffff161461049557600080fd5b33600083601081106104a357fe5b0160006101000a81548173ffffffffffffffffffffffffffffffffffffffff021916908373ffffffffffffffffffffffffffffffffffffffff160217905550819050919050565b60405180610200016040528060109060208202803883398082019150509050509056fea265627a7a72315820f8f0fcadb5d8d758dd739b2a9767179eeb7f4e1b13c875ec28bbd93ac440f45a64736f6c63430005100032",
  "source": "pragma solidity ^0.5.0;\n\ncontract Adoption {\n    \n    address[16] public adopters;\n    address private _admin;\n    bool public stopped = false;\n\n    modifier stopInEmergency { require(!stopped); _; }\n\n    constructor() public {\n        _admin == msg.sender;\n    }\n\n    function reset() public {\n        require(_admin == msg.sender);\n        for (uint i = 0; i < 16; i++) {\n            delete adopters[i];\n        }\n    }\n\n    function isAdmin() public view returns(bool) {\n        return _admin == msg.sender;\n    }\n\n    function circuitBreaker() public {\n        stopped = true;\n    }\n\n    // Purchasing a pet\n    function purchase(uint petId) public payable stopInEmergency returns (uint) {\n        require(petId >= 0 && petId <= 15);\n        require (adopters[petId] == address(0x0));\n        adopters[petId] = msg.sender;\n        // add msg.sender address to customer database\n        return petId;\n    }\n\n    // Retrieving the adopters\n    function getAdopters() public view returns (address[16] memory) {\n        return adopters;\n    }\n\n}\n",
  "sourcePath": "/Users/junsung/dev/ConsenSys/pet-shop-tutorial/contracts/Purchase.sol",
  "compiler": {
    "name": "solc",
    "version": "0.5.16+commit.9c3226ce.Emscripten.clang"
  },
  "schemaVersion": "3.3.2",
  "updatedAt": "2020-11-29T02:05:02.891Z",
  "networkType": "ethereum",
  "devdoc": {
    "methods": {}
  },
  "userdoc": {
    "methods": {}
  }
}