{
  "contractName": "CircuitBreaker",
  "abi": [
    {
      "constant": true,
      "inputs": [],
      "name": "stopped",
      "outputs": [
        {
          "internalType": "bool",
          "name": "",
          "type": "bool"
        }
      ],
      "payable": false,
      "stateMutability": "view",
      "type": "function"
    },
    {
      "constant": false,
      "inputs": [],
      "name": "deposit",
      "outputs": [],
      "payable": false,
      "stateMutability": "nonpayable",
      "type": "function"
    },
    {
      "constant": false,
      "inputs": [],
      "name": "withdraw",
      "outputs": [],
      "payable": false,
      "stateMutability": "nonpayable",
      "type": "function"
    }
  ],
  "bytecode": "0x608060405260008060006101000a81548160ff02191690831515021790555034801561002a57600080fd5b5060eb806100396000396000f3fe6080604052348015600f57600080fd5b5060043610603c5760003560e01c80633ccfd60b14604157806375f12b21146049578063d0e30db0146069575b600080fd5b60476071565b005b604f608a565b604051808215151515815260200191505060405180910390f35b606f609c565b005b6000809054906101000a900460ff16608857600080fd5b565b6000809054906101000a900460ff1681565b6000809054906101000a900460ff161560b457600080fd5b56fea265627a7a723158200c6816e0e344bc06a151216e4d773dcfb30431fc17fa5e4d689bcb172024b47c64736f6c63430005100032",
  "source": "// SPDX-License-Identifier: MIT\npragma solidity >=0.5.16;\n\ncontract Giftcard {\n  \n  // struct Winner {\n  //   string proof;\n  //   uint code;\n  // }\n\n  //  Winner[] public winners;\n  address[10] public winners;\n\n  // Choosing a gift \n  function chooseGift(uint giftId) public returns (uint) {\n    require(giftId >= 0 && giftId <= 9);\n    winners[giftId] = msg.sender;\n    return giftId;\n  }\n\n  // Retrieving the giftcard winners\n  function getWinners() public view returns (address[10] memory) {\n    return winners;\n  }\n}\n\n\n//////////////////////////////////////////////////////////////////////////////////////////////////////////\n// Source code with comments available at https://docs.soliditylang.org/en/latest/contracts.html\n\n// contract OwnedToken {\n//     // `TokenCreator` is a contract type that is defined below.\n//     // It is fine to reference it as long as it is not used to create a new contract.\n//     TokenCreator creator;\n//     address owner;\n//     bytes32 name;\n\n//     // This is the constructor which registers the creator and the assigned name.\n//     constructor(bytes32 _name) {\n//         // State variables are accessed via their name and not via e.g. `this.owner`. \n//         // Functions can fbe accessed directly or through `this.f`, but the latter provides an \n//         // external view to the function. Especially in the constructor, you should not access \n//         // functions externally, because the function does not exist yet.\n//         // See the next section for details.\n//         owner = msg.sender;\n\n//         // We perform an explicit type conversion from `address` to `TokenCreator` and assume that\n//         // the type of the calling contract is `TokenCreator`, there is no real way to verify that.\n//         // This does not create a new contract.\n//         creator = TokenCreator(msg.sender);\n//         name = _name;\n//     }\n\n//     function changeName(bytes32 newName) public {\n//         // Only the creator can alter the name. We compare the contract based on its address which \n//         // can be retrieved by explicit conversion to address.\n//         if (msg.sender == address(creator))\n//             name = newName;\n//     }\n\n//     function transfer(address newOwner) public {\n//         // Only the current owner can transfer the token.\n//         if (msg.sender != owner) return;\n\n//         // We ask the creator contract if the transfer should proceed by using a function of the\n//         // `TokenCreator` contract defined below. If the call fails (e.g. due to out-of-gas), the\n//         // execution also fails here.\n//         if (creator.isTokenTransferOK(owner, newOwner))\n//             owner = newOwner;\n//     }\n// }\n\n\n// contract TokenCreator {\n//     function createToken(bytes32 name)\n//         public\n//         returns (OwnedToken tokenAddress)\n//     {\n//         // Create a new `Token` contract and return its address.\n//         // From the JavaScript side, the return type of this function is `address`, as this is\n//         // the closest type available in the ABI.\n//         return new OwnedToken(name);\n//     }\n\n//     function changeName(OwnedToken tokenAddress, bytes32 name) public {\n//         // Again, the external type of `tokenAddress` is simply `address`.\n//         tokenAddress.changeName(name);\n//     }\n\n//     // Perform checks to determine if transferring a token to the `OwnedToken` contract should proceed\n//     function isTokenTransferOK(address currentOwner, address newOwner)\n//         public\n//         pure\n//         returns (bool ok)\n//     {\n//         // Check an arbitrary condition to see if transfer should proceed\n//         return keccak256(abi.encodePacked(currentOwner, newOwner))[0] == 0x7f;\n//     }\n// }\n\n\n\n// //////////////////////////////////////////////////////////////////////////////////////////////////////////\n\n// contract owned {\n//     constructor() { owner = msg.sender; }\n//     address payable owner;\n\n//     // This contract only defines a modifier but does not use it: it will be used in derived contracts.\n//     // The function body is inserted where the special symbol `_;` in the definition of a modifier appears.\n//     // This means that if the owner calls this function, the function is executed and otherwise, an exception\n//     // is thrown.\n//     modifier onlyOwner {\n//         require(\n//             msg.sender == owner,\n//             \"Only owner can call this function.\"\n//         );\n//         _;\n//     }\n// }\n\n// contract destructible is owned {\n//     // This contract inherits the `onlyOwner` modifier from `owned` and applies it to the `destroy` function,\n//     // which causes that calls to `destroy` only have an effect if they are made by the stored owner.\n//     function destroy() public onlyOwner {\n//         selfdestruct(owner);\n//     }\n// }\n\n// contract priced {\n//     // Modifiers can receive arguments:\n//     modifier costs(uint price) {\n//         if (msg.value >= price) {\n//             _;\n//         }\n//     }\n// }\n\n// contract Register is priced, destructible {\n//     mapping (address => bool) registeredAddresses;\n//     uint price;\n\n//     constructor(uint initialPrice) { price = initialPrice; }\n\n//     // It is important to also provide the `payable` keyword here, otherwise the function will\n//     // automatically reject all Ether sent to it.\n//     function register() public payable costs(price) {\n//         registeredAddresses[msg.sender] = true;\n//     }\n\n//     function changePrice(uint _price) public onlyOwner {\n//         price = _price;\n//     }\n// }\n\n// contract Mutex {\n//     bool locked;\n//     modifier noReentrancy() {\n//         require(\n//             !locked,\n//             \"Reentrant call.\"\n//         );\n//         locked = true;\n//         _;\n//         locked = false;\n//     }\n\n//     /// This function is protected by a mutex, which means that reentrant calls from within `msg.sender.call` cannot call `f` again.\n//     /// The `return 7` statement assigns 7 to the return value but still executes the statement `locked = false` in the modifier.\n//     function f() public noReentrancy returns (uint) {\n//         (bool success,) = msg.sender.call(\"\");\n//         require(success);\n//         return 7;\n//     }\n// }\n\n// //////////////////////////////////////////////////////////////////////////////////////////////////////////\n\n\n// Source code at https://courses.consensys.net/courses/take/blockchain-developer-bootcamp-registration-2020/texts/14509386-10-1-smart-contract-design-patterns\ncontract CircuitBreaker {\n\n    bool public stopped = false;\n\n    modifier stopInEmergency { require(!stopped); _; }\n    modifier onlyInEmergency { require(stopped); _; }\n\n    function deposit() stopInEmergency public { \n      // Stop customer's token from being used towards a product that's no longer available.\n    }\n    function withdraw() onlyInEmergency public {  \n      // Return any ether used in faulty transaction.\n    } \n}\n\n// Fund splitter contract on Github: https://gist.github.com/critesjosh/80d41928db2310684bc7660aa45873da\n// The split() function handles the accounting and divides the msg.value sent with the transaction. \n// Another function, withdraw(), allows accounts to transfer their balance from the contract to their account.\n// This pattern is also called the withdrawal pattern. It protects against re-entrancy and DoS attacks.\ncontract Splitter {\n\n    mapping(address => uint) public balances;\n\n    function split(address address1, address address2)  // no external calls, so it will not fail\n\tpublic\n\tpayable\n\treturns(bool success)\n    {\n\trequire(msg.value > 1);\n\trequire(address1 != address(0));\n\trequire(address2 != address(0));\n        uint amount = (msg.value - (msg.value % 2)) / 2;\n        balances[address1] += amount;\n        balances[address2] += amount;\n        balances[msg.sender] += msg.value % 2;\n\treturn true;\n    }\n\n    function withdraw()\n\tpublic\n\treturns(bool success)\n    {\n\trequire(balances[msg.sender] > 0);\n\tuint amount = balances[msg.sender];\n\tbalances[msg.sender] = 0;\n\tmsg.sender.transfer(amount);\n\treturn true;\n    }\n}\n",
  "sourcePath": "/Users/junsung/dev/ConsenSys/pet-shop-tutorial/contracts/Giftcard.sol",
  "compiler": {
    "name": "solc",
    "version": "0.5.16+commit.9c3226ce.Emscripten.clang"
  },
  "schemaVersion": "3.3.2",
  "updatedAt": "2020-11-29T21:14:58.748Z",
  "devdoc": {
    "methods": {}
  },
  "userdoc": {
    "methods": {},
    "notice": "///////////////////////////////////////////////////////////////////////////////////////////////////////"
  }
}