{
  "contractName": "Purchase",
  "abi": [
    {
      "inputs": [],
      "payable": false,
      "stateMutability": "nonpayable",
      "type": "constructor"
    },
    {
      "constant": false,
      "inputs": [],
      "name": "reset",
      "outputs": [],
      "payable": false,
      "stateMutability": "nonpayable",
      "type": "function"
    },
    {
      "constant": false,
      "inputs": [],
      "name": "withdraw",
      "outputs": [],
      "payable": false,
      "stateMutability": "nonpayable",
      "type": "function"
    },
    {
      "constant": true,
      "inputs": [],
      "name": "refundAvailable",
      "outputs": [
        {
          "internalType": "bool",
          "name": "",
          "type": "bool"
        }
      ],
      "payable": false,
      "stateMutability": "view",
      "type": "function"
    },
    {
      "constant": true,
      "inputs": [],
      "name": "isAdmin",
      "outputs": [
        {
          "internalType": "bool",
          "name": "",
          "type": "bool"
        }
      ],
      "payable": false,
      "stateMutability": "view",
      "type": "function"
    },
    {
      "constant": false,
      "inputs": [],
      "name": "circuitBreaker",
      "outputs": [],
      "payable": false,
      "stateMutability": "nonpayable",
      "type": "function"
    },
    {
      "constant": false,
      "inputs": [
        {
          "internalType": "uint256",
          "name": "petId",
          "type": "uint256"
        }
      ],
      "name": "purchase",
      "outputs": [
        {
          "internalType": "uint256",
          "name": "",
          "type": "uint256"
        }
      ],
      "payable": true,
      "stateMutability": "payable",
      "type": "function"
    },
    {
      "constant": true,
      "inputs": [],
      "name": "getPurchasers",
      "outputs": [
        {
          "internalType": "address[16]",
          "name": "",
          "type": "address[16]"
        }
      ],
      "payable": false,
      "stateMutability": "view",
      "type": "function"
    },
    {
      "constant": true,
      "inputs": [],
      "name": "eligibleDiscount",
      "outputs": [
        {
          "internalType": "bool",
          "name": "",
          "type": "bool"
        }
      ],
      "payable": false,
      "stateMutability": "view",
      "type": "function"
    }
  ],
  "bytecode": "0x60806040526000601260146101000a81548160ff02191690831515021790555034801561002b57600080fd5b5033601260006101000a81548173ffffffffffffffffffffffffffffffffffffffff021916908373ffffffffffffffffffffffffffffffffffffffff16021790555061099e8061007c6000396000f3fe60806040526004361061007b5760003560e01c8063b6db75a01161004e578063b6db75a014610130578063bd62ab5f1461015f578063d826f88f1461018e578063efef39a1146101a55761007b565b80630409eb851461008057806316efd941146100d3578063365c5863146100ea5780633ccfd60b14610119575b600080fd5b34801561008c57600080fd5b506100956101e7565b6040518082601060200280838360005b838110156100c05780820151818401526020810190506100a5565b5050505090500191505060405180910390f35b3480156100df57600080fd5b506100e8610268565b005b3480156100f657600080fd5b506100ff610285565b604051808215151515815260200191505060405180910390f35b34801561012557600080fd5b5061012e610329565b005b34801561013c57600080fd5b50610145610448565b604051808215151515815260200191505060405180910390f35b34801561016b57600080fd5b506101746104a0565b604051808215151515815260200191505060405180910390f35b34801561019a57600080fd5b506101a36104e9565b005b6101d1600480360360208110156101bb57600080fd5b8101908080359060200190929190505050610714565b6040518082815260200191505060405180910390f35b6101ef610946565b600060108060200260405190810160405280929190826010801561025e576020028201915b8160009054906101000a900473ffffffffffffffffffffffffffffffffffffffff1673ffffffffffffffffffffffffffffffffffffffff1681526020019060010190808311610214575b5050505050905090565b6001601260146101000a81548160ff021916908315150217905550565b6000806000905060005b601081101561031e573373ffffffffffffffffffffffffffffffffffffffff16600082601081106102bc57fe5b0160009054906101000a900473ffffffffffffffffffffffffffffffffffffffff1673ffffffffffffffffffffffffffffffffffffffff1614156103115761030e6001836108be90919063ffffffff16565b91505b808060010191505061028f565b506001811491505090565b6000601160003373ffffffffffffffffffffffffffffffffffffffff1673ffffffffffffffffffffffffffffffffffffffff168152602001908152602001600020541161037557600080fd5b6000601160003373ffffffffffffffffffffffffffffffffffffffff1673ffffffffffffffffffffffffffffffffffffffff1681526020019081526020016000205490506000601160003373ffffffffffffffffffffffffffffffffffffffff1673ffffffffffffffffffffffffffffffffffffffff168152602001908152602001600020819055503373ffffffffffffffffffffffffffffffffffffffff166108fc829081150290604051600060405180830381858888f19350505050158015610444573d6000803e3d6000fd5b5050565b60003373ffffffffffffffffffffffffffffffffffffffff16601260009054906101000a900473ffffffffffffffffffffffffffffffffffffffff1673ffffffffffffffffffffffffffffffffffffffff1614905090565b600080601160003373ffffffffffffffffffffffffffffffffffffffff1673ffffffffffffffffffffffffffffffffffffffff1681526020019081526020016000205411905090565b3373ffffffffffffffffffffffffffffffffffffffff16601260009054906101000a900473ffffffffffffffffffffffffffffffffffffffff1673ffffffffffffffffffffffffffffffffffffffff161461054357600080fd5b60008090505b601081101561071157600080826010811061056057fe5b0160009054906101000a900473ffffffffffffffffffffffffffffffffffffffff169050600073ffffffffffffffffffffffffffffffffffffffff168173ffffffffffffffffffffffffffffffffffffffff16146106d257610649601060008373ffffffffffffffffffffffffffffffffffffffff1673ffffffffffffffffffffffffffffffffffffffff16815260200190815260200160002054601160008473ffffffffffffffffffffffffffffffffffffffff1673ffffffffffffffffffffffffffffffffffffffff168152602001908152602001600020546108be90919063ffffffff16565b601160008373ffffffffffffffffffffffffffffffffffffffff1673ffffffffffffffffffffffffffffffffffffffff168152602001908152602001600020819055506000601060008373ffffffffffffffffffffffffffffffffffffffff1673ffffffffffffffffffffffffffffffffffffffff168152602001908152602001600020819055505b600082601081106106df57fe5b0160006101000a81549073ffffffffffffffffffffffffffffffffffffffff0219169055508080600101915050610549565b50565b6000601260149054906101000a900460ff161561073057600080fd5b600082101580156107425750600f8211155b61074b57600080fd5b600073ffffffffffffffffffffffffffffffffffffffff166000836010811061077057fe5b0160009054906101000a900473ffffffffffffffffffffffffffffffffffffffff1673ffffffffffffffffffffffffffffffffffffffff16146107b257600080fd5b60003414156107d457600115156107c7610285565b1515146107d357600080fd5b5b33600083601081106107e257fe5b0160006101000a81548173ffffffffffffffffffffffffffffffffffffffff021916908373ffffffffffffffffffffffffffffffffffffffff16021790555061087334601060003373ffffffffffffffffffffffffffffffffffffffff1673ffffffffffffffffffffffffffffffffffffffff168152602001908152602001600020546108be90919063ffffffff16565b601060003373ffffffffffffffffffffffffffffffffffffffff1673ffffffffffffffffffffffffffffffffffffffff16815260200190815260200160002081905550819050919050565b60008082840190508381101561093c576040517f08c379a000000000000000000000000000000000000000000000000000000000815260040180806020018281038252601b8152602001807f536166654d6174683a206164646974696f6e206f766572666c6f77000000000081525060200191505060405180910390fd5b8091505092915050565b60405180610200016040528060109060208202803883398082019150509050509056fea265627a7a72315820174f058553199489062537f72c4b7fadcded0886183da5311e696d69aa85394564736f6c63430005100032",
  "source": "pragma solidity ^0.5.0;\n\nimport \"@openzeppelin/contracts/math/SafeMath.sol\";\n\ncontract Purchase {\n    \n    using SafeMath for uint;\n    \n    address[16] private _purchasers;\n    mapping (address => uint) private _addressBalances;\n    mapping (address => uint) private _addressRefundBalances;\n    address private _admin;\n    bool private _stopped = false;\n\n    modifier stopInEmergency { require(!_stopped); _; }\n\n    constructor() public {\n        _admin = msg.sender;\n    }\n\n    function reset() public {\n        require(_admin == msg.sender);\n        for (uint i = 0; i < _purchasers.length; i++) {\n            address purchaser = _purchasers[i];\n            if (purchaser != address(0x0)) {\n                _addressRefundBalances[purchaser] = _addressRefundBalances[purchaser].add(_addressBalances[purchaser]);\n                _addressBalances[purchaser] = 0;\n            } \n            delete _purchasers[i];\n        }\n    }\n\n    function withdraw() public {\n        require(_addressRefundBalances[msg.sender] > 0);\n        uint amount = _addressRefundBalances[msg.sender];\n\t    _addressRefundBalances[msg.sender] = 0;\n\t    msg.sender.transfer(amount);\n    }\n\n    function refundAvailable() public view returns(bool) {\n        return _addressRefundBalances[msg.sender] > 0;\n    }\n\n    function isAdmin() public view returns(bool) {\n        return _admin == msg.sender;\n    }\n\n    function circuitBreaker() public {\n        _stopped = true;\n    }\n\n    // Purchasing a pet\n    function purchase(uint petId) public payable stopInEmergency returns(uint) {\n        require(petId >= 0 && petId <= 15);\n        require(_purchasers[petId] == address(0x0));\n        if (msg.value == 0) { // Metamask re-entrancy attack\n            require(eligibleDiscount() == true);\n        }\n        _purchasers[petId] = msg.sender;\n        _addressBalances[msg.sender] = _addressBalances[msg.sender].add(msg.value);\n        // add msg.sender address to customer database\n        return petId;\n    }\n\n    // Retrieving the adopters\n    function getPurchasers() public view returns(address[16] memory) {\n        return _purchasers;\n    }\n\n    function eligibleDiscount() public view returns(bool) {\n        uint count = 0;\n        for (uint i; i < _purchasers.length; i++) {\n            if (_purchasers[i] == msg.sender) {\n                count = count.add(1);\n            }    \n        }\n        return count == 1;\n    }\n\n}\n",
  "sourcePath": "/Users/junsung/dev/ConsenSys/pet-shop-tutorial/contracts/Purchase.sol",
  "compiler": {
    "name": "solc",
    "version": "0.5.16+commit.9c3226ce.Emscripten.clang"
  },
  "schemaVersion": "3.3.2",
  "updatedAt": "2020-11-29T21:54:03.198Z",
  "networkType": "ethereum",
  "devdoc": {
    "methods": {}
  },
  "userdoc": {
    "methods": {}
  }
}